S0180000454E4747323830305F50726F6A6563742E73726563EB
S11300000C9434000C9451000C9451000C94510045
S11300100C9451000C9451000C9451000C94510018
S11300200C9451000C9451000C9451000C94C00396
S11300300C9451000C9451000C94A2030C94B10341
S11300400C9451000C9451000C9451000C945100E8
S11300500C9451000C9451000C9451000C945100D8
S11300600C9451000C94510011241FBECFEFD8E022
S1130070DEBFCDBF11E0A0E0B1E0E0EBF7E002C0ED
S113008005900D92A230B107D9F721E0A2E0B1E0CA
S113009001C01D92AA30B207E1F70E9417020C9426
S11300A0D6030C94000080910601909107018F3FC4
S11300B0910509F05CF42091000130910101232B9A
S11300C029F001969093070180930601809106011F
S11300D0909107018F3F91055CF0209100013091D0
S11300E00101232B59F0109201011092000106C066
S11300F02091000130910101232B29F40197909361
S113010007018093060108958091060190910701EB
S11301108F3F910509F0A4F4209100013091010171
S1130120232B71F00196909307018093060180912F
S113013008019091090101969093090180930801A7
S113014080910601909107018F3F91055CF0209109
S1130150000130910101232B59F0109201011092FA
S1130160000106C02091000130910101232B71F49C
S11301700197909307018093060180910801909163
S113018009010197909309018093080108958091D2
S11301900401909105018F3F910509F0A4F4209189
S11301A0000130910101232B71F001969093050118
S11301B08093040180910801909109010196909324
S11301C009018093080180910401909105018F3FFA
S11301D091055CF02091000130910101232B59F02D
S11301E0109201011092000106C02091000130918B
S11301F00101232B71F4019790930501809304016D
S113020080910801909109010197909309018093CD
S11302100801089580910801909109018F3F91058B
S113022009F05CF42091000130910101232B29F0A5
S1130230019690930901809308018091080190919F
S113024009018F3F91055CF020910001309101017B
S1130250232B59F0109201011092000106C0209145
S1130260000130910101232B29F401979093090196
S113027080930801089580910601909107018F3FB2
S1130280910509F0ECF42091000130910101232B38
S1130290B9F00196909307018093060180910801BB
S11302A0909109010196909309018093080180912E
S11302B00401909105010196909305018093040136
S11302C080910601909107018F3F91055CF0209188
S11302D0000130910101232B59F010920101109279
S11302E0000106C02091000130910101232BB9F4D3
S11302F001979093070180930601809108019091E2
S113030009010197909309018093080180910401E8
S1130310909105010197909305018093040108953C
S113032080910601909107018F3F910509F0A4F493
S11303302091000130910101232B71F001969093DB
S113034007018093060180910401909105010196B3
S11303509093050180930401809106019091070117
S11303608F3F91055CF02091000130910101232B16
S113037059F0109201011092000106C02091000171
S113038030910101232B71F401979093070180931D
S11303900601809104019091050101979093050154
S11303A080930401089580910401909105018F3F89
S11303B0910509F05CF42091000130910101232B97
S11303C029F0019690930501809304018091040122
S11303D0909105018F3F91055CF0209100013091CF
S11303E00101232B59F0109201011092000106C063
S11303F02091000130910101232B29F4019790935E
S113040005018093040108951092050110920401DE
S1130410109209011092080110920701109206012E
S113042081E090E09093010180930001089581E0C0
S113043090E09093010180930001109203011092C7
S1130440020180E68AB917B882E084B984B1827067
S113045084B984B5836A84BDE0E8F0E08081816872
S11304608083EEE6F0E0808186608083EFE6F0E052
S11304708081826080838FEF87BD88BD8FEF90E09D
S11304809093890080938800789485B5816085BDB8
S1130490E1E8F0E0808189608083A12CB12C812C7B
S11304A0912C612C712C412C512C00E010E0212C5A
S11304B0312CCC24C394D12CEE24E394F12CCFEF33
S11304C0D0E086B1882329F0F0920301E092020182
S11304D013C083B1882361F082E090E0909303011C
S11304E0809302010E9404020E94D301870104C088
S11304F01092030110920201809102019091030174
S1130500009709F06BC0C114D10421F0D093070106
S1130510C09306010115110521F0D0930501C09384
S113052004012114310459F08091080190910901CA
S11305308F3F910521F0D0930901C0930801411424
S1130540510479F080910601909107018F3F910544
S113055041F0D0930701C0930601D0930901C093E1
S113056008018114910479F08091040190910501AE
S11305708F3F910541F0D0930501C0930401D093BE
S11305800901C09308016114710479F08091060196
S1130590909107018F3F910541F0D0930701C093DB
S11305A00601D0930501C0930401A114B10409F418
S11305B088CF80910601909107018F3F910509F43E
S11305C080CFD0930701C0930601D0930901C09353
S11305D00801D0930501C093040173CF019709F07A
S11305E070CF8FEC97E00197F1F700C00000C114C1
S11305F0D104A9F00E945300809106019091070153
S11306001816190664F08091000190910101892B5C
S113061031F40E9404022701C12CD12C03C04114DF
S11306205104A9F00E948400809106019091070171
S11306301816190664F08091000190910101892B2C
S113064031F40E9404024701412C512C03C081144F
S11306509104A9F00E94C7008091040190910501C2
S11306601816190664F08091000190910101892BFC
S113067031F40E940402812C912C170103C021142F
S11306803104A9F00E940A018091080190910901A6
S11306901816190664F08091000190910101892BCC
S11306A031F40E9404025701212C312C03C0A114FF
S11306B0B104A9F00E943B018091060190910701C9
S11306C01816190664F08091000190910101892B9C
S11306D031F40E940402A12CB12C370103C061142F
S11306E07104A9F00E949001809106019091070184
S11306F01816190664F08091000190910101892B6C
S113070031F40E940402612C712C870104C001158C
S1130710110509F4D6CE0E94D30180910401909171
S11307200501181619060CF4CCCE809100019091A5
S11307300101892B09F0C5CE0E94040200E010E0FB
S11307406701BFCE1F920F920FB60F9211248F93A1
S11307508091080187BD8F910F900FBE0F901F905D
S113076018951F920F920FB60F9211248F938091B8
S1130770040188BD8F910F900FBE0F901F901895A4
S11307801F920F920FB60F9211248F939F93809113
S113079006019091070190938900809388009F91AE
S11307A08F910F900FBE0F901F901895F894FFCF64
S10507B0010042
S9030000FC
