:100000000C9434000C9449000C9449000C94490061
:100010000C9449000C9449000C9449000C9449003C
:100020000C9449000C9449000C9449000C9449002C
:100030000C9449000C9449000C9449000C9449001C
:100040000C9449000C9449000C9449000C9449000C
:100050000C9449000C9449000C9449000C944900FC
:100060000C9449000C94490011241FBECFEFD8E036
:10007000DEBFCDBF12E0A0E0B1E0E0E4F1E002C0FD
:1000800005900D92A032B107D9F70E9497000C9409
:100090009E000C940000209A259A549A579A219A0F
:1000A000229A239A28982D985C985F9A29982A9AE0
:1000B00008955C9A5F9AE0ECF1E080E292E003C080
:1000C000299A299808952191222311F02B9A01C091
:1000D0002B982D9A2D98E817F907A9F7F1CF5F9B78
:1000E00003C05F9841E001C040E02A9880E090E1C1
:1000F00020E008C02A9A299A29984423B9F02D9A19
:100100002D980895203C68F4E22FF0E0E050FF4F76
:100110003081332311F02B9A01C02B982D9A2D9802
:100120002F5F289A2898019769F7E4CF08950E94D5
:100130004B000E9459000E946F00FDCFF894FFCF42
:1001400000000000000000000000000000000000AF
:10015000000000000000000000000000000000009F
:10016000000000000000000000000000000000018E
:10017000000000000000000000000100000000007E
:10018000000000000001000000000000000000006E
:10019000010000000000000000000001000000005D
:1001A000000000000000010000000000000000004E
:1001B000000100000000000000000000010000003D
:1001C000000000000000000100000000000000002E
:1001D000000001000000000000000000000100001D
:1001E000000000000000000001000000000000000E
:1001F00000000000010101010101010101010101F3
:1002000001010101010101010101010101010101DE
:1002100001010101010101010101010101010101CE
:1002200001010101010101010101010101010101BE
:1002300001010101010101010101010101010101AE
:10024000010101010101010101010101010101019E
:10025000010101010101010101010101010101018E
:00000001FF
